:100003000622FD00000000000635FC000000000091
:0E001300062FF80000000000013B000128004D
:10029700E4FDEDC39FE49E500B7C0F7B5ADBFEDC35
:0402A700FC0D80EEDC
:0102AB002230
:0300C30002002612
:10002600C0E0C083C082C0D075D000C000C006C08A
:100036000790FE84E030E606E054BFF0806690FE4E
:1000460084E030E52BE054DFF0300004C200805439
:1000560030010CC20190FE87E0F5212400802E902D
:10006600FE87E0FFAE21052174002EF8EFF2803402
:1000760090FE84E030E41EE054EFF0E030E10890BA
:10008600FE8674FFF0801D052174002521F8E2909C
:10009600FE86F0800F90FE84E030E308E054F7F02F
:1000A600D200D201D007D006D000D0D0D082D083E3
:0300B600D0E03265
:060275008B098A0A890BC7
:10027B00E4FFAB09AA0AA90B8F827583001202480F
:0B028B00F5993099FDC2990FBF06E7FE
:010296002245
:1002AC00E4F5B2F5B1F5CAF5C975BA1043BA8022B6
:03002300020218BE
:10021800C0E0C0D075D000C000309902C2993098B3
:10022800187429253BF8A699053BE53BC39406407D
:1002380006753B00752801C298D000D0D0D0E032B6
:1000C600E4FA7508551202AC759850438E40538E6B
:1000D600FE53890F758BE8758DFFC2ABD28ED2ACFD
:1000E60090FE807481F090FE85745AF090FE84E450
:1000F600F090FE837478F0D2AFD200D201E4F521FD
:1001060074002521F8E290FE86F078087401F2E486
:1001160008F27810F27801F208F208F208F208F212
:100126007811F208F27807F27808E2B40104D2B244
:100136008002C2B27809E2FFB40104D2B38002C2DF
:10014600B37810E2B40103758702EFB401DA7B00DD
:100156007A0079221202757FC87E00120297E4FAAD
:10016600E528B401187801E52AF208E52BF208E53E
:100176002CF208E52DF208E52EF2E4F5287F327E12
:060186000012029780A2A6
:0300000002018C6E
:0C018C00787FE4F6D8FD75813B0201D3BA
:10024800BB010CE58229F582E5833AF583E022506B
:1002580006E92582F8E622BBFE06E92582F8E222B5
:0D026800E58229F582E5833AF583E49322CF
:100198000200C6E493A3F8E493A34003F68001F2B7
:1001A80008DFF48029E493A3F85407240CC8C33368
:1001B800C4540F4420C8834004F456800146F6DF37
:1001C800E4800B0102040810204080900003E47EC4
:1001D800019360BCA3FF543F30E509541FFEE4932C
:1001E800A360010ECF54C025E060A840B8E493A3F3
:1001F800FAE493A3F8E493A3C8C582C8CAC583CA1E
:10020800F0A3C8C582C8CAC583CADFE9DEE780BED5
:0100210000DE
:00000001FF
